{
  "contractName": "LAND",
  "abi": [
    {
      "inputs": [],
      "stateMutability": "nonpayable",
      "type": "constructor"
    },
    {
      "anonymous": false,
      "inputs": [
        {
          "indexed": true,
          "internalType": "address",
          "name": "owner",
          "type": "address"
        },
        {
          "indexed": true,
          "internalType": "address",
          "name": "approved",
          "type": "address"
        },
        {
          "indexed": true,
          "internalType": "uint256",
          "name": "tokenId",
          "type": "uint256"
        }
      ],
      "name": "Approval",
      "type": "event"
    },
    {
      "anonymous": false,
      "inputs": [
        {
          "indexed": true,
          "internalType": "address",
          "name": "owner",
          "type": "address"
        },
        {
          "indexed": true,
          "internalType": "address",
          "name": "operator",
          "type": "address"
        },
        {
          "indexed": false,
          "internalType": "bool",
          "name": "approved",
          "type": "bool"
        }
      ],
      "name": "ApprovalForAll",
      "type": "event"
    },
    {
      "anonymous": false,
      "inputs": [
        {
          "indexed": true,
          "internalType": "address",
          "name": "from",
          "type": "address"
        },
        {
          "indexed": true,
          "internalType": "address",
          "name": "to",
          "type": "address"
        },
        {
          "indexed": true,
          "internalType": "uint256",
          "name": "tokenId",
          "type": "uint256"
        }
      ],
      "name": "Transfer",
      "type": "event"
    },
    {
      "inputs": [
        {
          "internalType": "address",
          "name": "to",
          "type": "address"
        },
        {
          "internalType": "uint256",
          "name": "tokenId",
          "type": "uint256"
        }
      ],
      "name": "approve",
      "outputs": [],
      "stateMutability": "nonpayable",
      "type": "function"
    },
    {
      "inputs": [
        {
          "internalType": "address",
          "name": "owner",
          "type": "address"
        }
      ],
      "name": "balanceOf",
      "outputs": [
        {
          "internalType": "uint256",
          "name": "",
          "type": "uint256"
        }
      ],
      "stateMutability": "view",
      "type": "function",
      "constant": true
    },
    {
      "inputs": [
        {
          "internalType": "address",
          "name": "",
          "type": "address"
        },
        {
          "internalType": "uint256",
          "name": "",
          "type": "uint256"
        }
      ],
      "name": "eqCount",
      "outputs": [
        {
          "internalType": "uint256",
          "name": "",
          "type": "uint256"
        }
      ],
      "stateMutability": "view",
      "type": "function",
      "constant": true
    },
    {
      "inputs": [
        {
          "internalType": "uint256",
          "name": "tokenId",
          "type": "uint256"
        }
      ],
      "name": "getApproved",
      "outputs": [
        {
          "internalType": "address",
          "name": "",
          "type": "address"
        }
      ],
      "stateMutability": "view",
      "type": "function",
      "constant": true
    },
    {
      "inputs": [
        {
          "internalType": "address",
          "name": "owner",
          "type": "address"
        },
        {
          "internalType": "address",
          "name": "operator",
          "type": "address"
        }
      ],
      "name": "isApprovedForAll",
      "outputs": [
        {
          "internalType": "bool",
          "name": "",
          "type": "bool"
        }
      ],
      "stateMutability": "view",
      "type": "function",
      "constant": true
    },
    {
      "inputs": [
        {
          "internalType": "address",
          "name": "",
          "type": "address"
        },
        {
          "internalType": "uint256",
          "name": "",
          "type": "uint256"
        }
      ],
      "name": "latestInstall",
      "outputs": [
        {
          "internalType": "uint256",
          "name": "",
          "type": "uint256"
        }
      ],
      "stateMutability": "view",
      "type": "function",
      "constant": true
    },
    {
      "inputs": [],
      "name": "name",
      "outputs": [
        {
          "internalType": "string",
          "name": "",
          "type": "string"
        }
      ],
      "stateMutability": "view",
      "type": "function",
      "constant": true
    },
    {
      "inputs": [
        {
          "internalType": "uint256",
          "name": "tokenId",
          "type": "uint256"
        }
      ],
      "name": "ownerOf",
      "outputs": [
        {
          "internalType": "address",
          "name": "",
          "type": "address"
        }
      ],
      "stateMutability": "view",
      "type": "function",
      "constant": true
    },
    {
      "inputs": [
        {
          "internalType": "address",
          "name": "from",
          "type": "address"
        },
        {
          "internalType": "address",
          "name": "to",
          "type": "address"
        },
        {
          "internalType": "uint256",
          "name": "tokenId",
          "type": "uint256"
        }
      ],
      "name": "safeTransferFrom",
      "outputs": [],
      "stateMutability": "nonpayable",
      "type": "function"
    },
    {
      "inputs": [
        {
          "internalType": "address",
          "name": "from",
          "type": "address"
        },
        {
          "internalType": "address",
          "name": "to",
          "type": "address"
        },
        {
          "internalType": "uint256",
          "name": "tokenId",
          "type": "uint256"
        },
        {
          "internalType": "bytes",
          "name": "_data",
          "type": "bytes"
        }
      ],
      "name": "safeTransferFrom",
      "outputs": [],
      "stateMutability": "nonpayable",
      "type": "function"
    },
    {
      "inputs": [
        {
          "internalType": "address",
          "name": "operator",
          "type": "address"
        },
        {
          "internalType": "bool",
          "name": "approved",
          "type": "bool"
        }
      ],
      "name": "setApprovalForAll",
      "outputs": [],
      "stateMutability": "nonpayable",
      "type": "function"
    },
    {
      "inputs": [
        {
          "internalType": "bytes4",
          "name": "interfaceId",
          "type": "bytes4"
        }
      ],
      "name": "supportsInterface",
      "outputs": [
        {
          "internalType": "bool",
          "name": "",
          "type": "bool"
        }
      ],
      "stateMutability": "view",
      "type": "function",
      "constant": true
    },
    {
      "inputs": [],
      "name": "symbol",
      "outputs": [
        {
          "internalType": "string",
          "name": "",
          "type": "string"
        }
      ],
      "stateMutability": "view",
      "type": "function",
      "constant": true
    },
    {
      "inputs": [
        {
          "internalType": "uint256",
          "name": "tokenId",
          "type": "uint256"
        }
      ],
      "name": "tokenURI",
      "outputs": [
        {
          "internalType": "string",
          "name": "",
          "type": "string"
        }
      ],
      "stateMutability": "view",
      "type": "function",
      "constant": true
    },
    {
      "inputs": [
        {
          "internalType": "address",
          "name": "from",
          "type": "address"
        },
        {
          "internalType": "address",
          "name": "to",
          "type": "address"
        },
        {
          "internalType": "uint256",
          "name": "tokenId",
          "type": "uint256"
        }
      ],
      "name": "transferFrom",
      "outputs": [],
      "stateMutability": "nonpayable",
      "type": "function"
    },
    {
      "inputs": [],
      "name": "totalSupply",
      "outputs": [
        {
          "internalType": "uint256",
          "name": "",
          "type": "uint256"
        }
      ],
      "stateMutability": "view",
      "type": "function",
      "constant": true
    },
    {
      "inputs": [
        {
          "internalType": "address",
          "name": "addr",
          "type": "address"
        }
      ],
      "name": "getMyLands",
      "outputs": [
        {
          "internalType": "uint256[]",
          "name": "",
          "type": "uint256[]"
        }
      ],
      "stateMutability": "view",
      "type": "function",
      "constant": true
    },
    {
      "inputs": [
        {
          "internalType": "address",
          "name": "addr",
          "type": "address"
        }
      ],
      "name": "getMyLandStatuses",
      "outputs": [
        {
          "internalType": "uint256[]",
          "name": "",
          "type": "uint256[]"
        }
      ],
      "stateMutability": "view",
      "type": "function",
      "constant": true
    },
    {
      "inputs": [
        {
          "internalType": "uint256",
          "name": "tokenId",
          "type": "uint256"
        }
      ],
      "name": "mintLand",
      "outputs": [],
      "stateMutability": "payable",
      "type": "function",
      "payable": true
    },
    {
      "inputs": [
        {
          "internalType": "uint256[]",
          "name": "tokenIds",
          "type": "uint256[]"
        }
      ],
      "name": "mintMultiple",
      "outputs": [],
      "stateMutability": "payable",
      "type": "function",
      "payable": true
    },
    {
      "inputs": [
        {
          "internalType": "uint256",
          "name": "tokenId",
          "type": "uint256"
        },
        {
          "internalType": "uint256",
          "name": "newStatus",
          "type": "uint256"
        }
      ],
      "name": "updateStatus",
      "outputs": [],
      "stateMutability": "payable",
      "type": "function",
      "payable": true
    },
    {
      "inputs": [
        {
          "internalType": "uint256[]",
          "name": "tokenIds",
          "type": "uint256[]"
        },
        {
          "internalType": "uint256",
          "name": "newStatus",
          "type": "uint256"
        }
      ],
      "name": "updateMultiple",
      "outputs": [],
      "stateMutability": "payable",
      "type": "function",
      "payable": true
    },
    {
      "inputs": [
        {
          "internalType": "uint256",
          "name": "start",
          "type": "uint256"
        },
        {
          "internalType": "uint256",
          "name": "end",
          "type": "uint256"
        }
      ],
      "name": "getStatus",
      "outputs": [
        {
          "internalType": "uint256[]",
          "name": "",
          "type": "uint256[]"
        }
      ],
      "stateMutability": "view",
      "type": "function",
      "constant": true
    },
    {
      "inputs": [
        {
          "internalType": "uint256",
          "name": "tokenId",
          "type": "uint256"
        }
      ],
      "name": "addFeat",
      "outputs": [],
      "stateMutability": "nonpayable",
      "type": "function"
    },
    {
      "inputs": [
        {
          "internalType": "uint256[]",
          "name": "tokenIds",
          "type": "uint256[]"
        }
      ],
      "name": "addFeatMultiple",
      "outputs": [],
      "stateMutability": "nonpayable",
      "type": "function"
    },
    {
      "inputs": [],
      "name": "getFeatured",
      "outputs": [
        {
          "internalType": "uint256[]",
          "name": "",
          "type": "uint256[]"
        }
      ],
      "stateMutability": "view",
      "type": "function",
      "constant": true
    },
    {
      "inputs": [
        {
          "internalType": "uint256",
          "name": "tokenId",
          "type": "uint256"
        }
      ],
      "name": "makeOffer",
      "outputs": [],
      "stateMutability": "payable",
      "type": "function",
      "payable": true
    },
    {
      "inputs": [
        {
          "internalType": "uint256",
          "name": "offerId",
          "type": "uint256"
        }
      ],
      "name": "cancelOffer",
      "outputs": [],
      "stateMutability": "nonpayable",
      "type": "function"
    },
    {
      "inputs": [
        {
          "internalType": "uint256",
          "name": "offerId",
          "type": "uint256"
        }
      ],
      "name": "acceptOffer",
      "outputs": [],
      "stateMutability": "nonpayable",
      "type": "function"
    },
    {
      "inputs": [
        {
          "internalType": "address",
          "name": "addr",
          "type": "address"
        },
        {
          "internalType": "uint256",
          "name": "oType",
          "type": "uint256"
        }
      ],
      "name": "getOffers",
      "outputs": [
        {
          "components": [
            {
              "internalType": "uint256",
              "name": "id",
              "type": "uint256"
            },
            {
              "internalType": "address",
              "name": "from",
              "type": "address"
            },
            {
              "internalType": "uint256",
              "name": "fromIndex",
              "type": "uint256"
            },
            {
              "internalType": "address",
              "name": "to",
              "type": "address"
            },
            {
              "internalType": "uint256",
              "name": "toIndex",
              "type": "uint256"
            },
            {
              "internalType": "uint256",
              "name": "tokenId",
              "type": "uint256"
            },
            {
              "internalType": "uint256",
              "name": "amt",
              "type": "uint256"
            }
          ],
          "internalType": "struct LAND.Offer[]",
          "name": "",
          "type": "tuple[]"
        }
      ],
      "stateMutability": "view",
      "type": "function",
      "constant": true
    },
    {
      "inputs": [],
      "name": "withdraw",
      "outputs": [],
      "stateMutability": "nonpayable",
      "type": "function"
    }
  ],
  "bytecode": "0x6080604052620f7d9b6006553480156200001857600080fd5b5060408051808201825260048082527f4c414e4400000000000000000000000000000000000000000000000000000000602080840182815285518087019096529285528401528151919291620000719160009162000320565b5080516200008790600190602084019062000320565b5050600a8054600160a060020a0319163317815562032c667f6d5257204ebe7d88fd91ae87941cb2dd9d8062b64ae5a2bd2d28ec40b9fbf6df556207dfbb7fb39221ace053465ec3453ce2b36430bd138b997ecea25c1043da0c366812b82855620f7d9b7fb7c774451310d1be4108bc180d1b52823cb0ee0274a6c0081bcaf94f115fb96d5567016345785d8a00007fec8156718a8372b1db44bb411437d0870f3e3790d4a08526d024ce1b0b668f6b556702c68af0bb1400007f92e85d02570a8092d09a6e3a57665bc3815a2699a4074001bf1ccabf660f5a3655670429d069189e00007f6cde3cea4b3a3fb2488b2808bae7556f4a405e50f65e1794383bc026131b13c3556008602052671b9de674df0700007f6add646517a5b0f6793cd5891b7937d28a5b2981a5d88ebc7cd776088fea90415567297e9d28866b00007f625b35f5e76f098dd7c3a05b10e2e5e78a4a01228d60c3b143426cdf36d264555567375f53dc2dcf00007f9321edea6e3be4df59a344b401fab4f888b556fda1f954244cff9204bad624b8556745400a8fd53300007f91238f30f286c9a1c6e901c4eda3b214c381c846e3dbe48df95c21488e8e1fdb55675320c1437c9700007f13acf3fc7bed94759963f076d5d3443d88732026bffc8253bdf4a6e65f21ecc55567610177f723fb00007f24cd397636bedc6cf9b490d0edd57c769c19b367fb7d5c2344ae1ddc7d21c14455676ee22eaacb5f00007fe4c2e8be66af8dd2d277000f4f830a10546f8b14e45cd850b875c98ba0f0d2cd55677cc2e55e72c300007f82c9e868e45873bb5a4f47c09e14a12f6a6314e13aabd611e4374762bb4e8b365560005250678aa39c121a2700007f586689db7536874b78a6eac0f58556a56a106985743f7c16a699b27bb02f88bd556200041c565b8280546200032e90620003c6565b90600052602060002090601f0160209004810192826200035257600085556200039d565b82601f106200036d57805160ff19168380011785556200039d565b828001600101855582156200039d579182015b828111156200039d57825182559160200191906001019062000380565b50620003ab929150620003af565b5090565b5b80821115620003ab5760008155600101620003b0565b600281046001821680620003db57607f821691505b6020821081141562000416577f4e487b7100000000000000000000000000000000000000000000000000000000600052602260045260246000fd5b50919050565b6133e5806200042c6000396000f3fe60806040526004361061016b5760e060020a600035046301ffc9a7811461017057806306fdde03146101a5578063081812fc146101c7578063095ea7b3146101ff57806318160ddd1461022157806323b872dd146102405780633ccfd60b1461026057806342842e0e1461027557806346ae9508146102955780634c769b34146102b75780636352211e146102d7578063663de244146102f757806370a082311461032f578063728239f91461034f5780637abde1b81461036257806395d89b411461038257806398eba858146103975780639a2f6474146103b7578063a22cb465146103ca578063a6a6ab6c146103ea578063a745da651461040a578063b88d4fde1461042a578063c815729d1461044a578063c87b56dd1461046a578063d47f030d1461048a578063e2f318291461049d578063e985e9c5146104b0578063ea13d02a146104d0578063ea98a950146104e3578063ef706adf14610510578063ffe7d5b014610530575b600080fd5b34801561017c57600080fd5b5061019061018b366004612bb2565b610568565b60405190151581526020015b60405180910390f35b3480156101b157600080fd5b506101ba6105c3565b60405161019c9190612c27565b3480156101d357600080fd5b506101e76101e2366004612c3a565b610655565b604051600160a060020a03909116815260200161019c565b34801561020b57600080fd5b5061021f61021a366004612c6f565b6106e8565b005b34801561022d57600080fd5b506006545b60405190815260200161019c565b34801561024c57600080fd5b5061021f61025b366004612c99565b610805565b34801561026c57600080fd5b5061021f610839565b34801561028157600080fd5b5061021f610290366004612c99565b6108b2565b3480156102a157600080fd5b506102aa6108cd565b60405161019c9190612cd5565b3480156102c357600080fd5b506102aa6102d2366004612d19565b61098c565b3480156102e357600080fd5b506101e76102f2366004612c3a565b6109f8565b34801561030357600080fd5b50610232610312366004612c6f565b601160209081526000928352604080842090915290825290205481565b34801561033b57600080fd5b5061023261034a366004612d19565b610a75565b61021f61035d366004612c3a565b610b02565b34801561036e57600080fd5b5061021f61037d366004612c3a565b610c0d565b34801561038e57600080fd5b506101ba610c6f565b3480156103a357600080fd5b5061021f6103b2366004612dfc565b610c7e565b61021f6103c5366004612c3a565b610d00565b3480156103d657600080fd5b5061021f6103e5366004612e30565b61109e565b3480156103f657600080fd5b506102aa610405366004612d19565b6110a9565b34801561041657600080fd5b506102aa610425366004612e6c565b611113565b34801561043657600080fd5b5061021f610445366004612e8e565b6111ee565b34801561045657600080fd5b5061021f610465366004612c3a565b611229565b34801561047657600080fd5b506101ba610485366004612c3a565b6114af565b61021f610498366004612dfc565b61158d565b61021f6104ab366004612e6c565b61181f565b3480156104bc57600080fd5b506101906104cb366004612f4d565b611a1f565b61021f6104de366004612f80565b611a4d565b3480156104ef57600080fd5b506105036104fe366004612c6f565b611df4565b60405161019c9190612fc4565b34801561051c57600080fd5b5061021f61052b366004612c3a565b611f69565b34801561053c57600080fd5b5061023261054b366004612c6f565b601060209081526000928352604080842090915290825290205481565b6000600160e060020a0319821660e060020a6380ac58cd02148061059f5750600160e060020a0319821660e060020a635b5e139f02145b806105bd575060e060020a6301ffc9a702600160e060020a03198316145b92915050565b6060600080546105d290613054565b80601f01602080910402602001604051908101604052809291908181526020018280546105fe90613054565b801561064b5780601f106106205761010080835404028352916020019161064b565b820191906000526020600020905b81548152906001019060200180831161062e57829003601f168201915b5050505050905090565b600061066082612179565b6106cc5760405160e560020a62461bcd02815260206004820152602c60248201527f4552433732313a20617070726f76656420717565727920666f72206e6f6e6578604482015260a160020a6b34b9ba32b73a103a37b5b2b70260648201526084015b60405180910390fd5b50600090815260046020526040902054600160a060020a031690565b60006106f3826109f8565b905080600160a060020a031683600160a060020a031614156107675760405160e560020a62461bcd02815260206004820152602160248201527f4552433732313a20617070726f76616c20746f2063757272656e74206f776e65604482015260f960020a60390260648201526084016106c3565b33600160a060020a038216148061078357506107838133611a1f565b6107f65760405160e560020a62461bcd02815260206004820152603860248201527f4552433732313a20617070726f76652063616c6c6572206973206e6f74206f776044820152604260020a771b995c881b9bdc88185c1c1c9bdd995908199bdc88185b1b0260648201526084016106c3565b6108008383612196565b505050565b61080f3382612204565b61082e5760405160e560020a62461bcd0281526004016106c39061308d565b6108008383836122d4565b600a54600160a060020a031633146108665760405160e560020a62461bcd0281526004016106c3906130e1565b600a54601354600160a060020a03909116906108fc90610887903031613125565b6040518115909202916000818181858888f193505050501580156108af573d6000803e3d6000fd5b50565b610800838383604051806020016040528060008152506111ee565b6012546060906000906001604060020a038111156108ed576108ed612d34565b604051908082528060200260200182016040528015610916578160200160208202803683370190505b50905060005b60125481101561098657600b60006012838154811061093d5761093d61313c565b90600052602060002001548152602001908152602001600020548282815181106109695761096961313c565b60209081029190910101528061097e81613156565b91505061091c565b50919050565b600160a060020a0381166000908152600e60209081526040918290208054835181840281018401909452808452606093928301828280156109ec57602002820191906000526020600020905b8154815260200190600101908083116109d8575b50505050509050919050565b600081815260026020526040812054600160a060020a0316806105bd5760405160e560020a62461bcd02815260206004820152602960248201527f4552433732313a206f776e657220717565727920666f72206e6f6e6578697374604482015260b960020a6832b73a103a37b5b2b70260648201526084016106c3565b6000600160a060020a038216610ae65760405160e560020a62461bcd02815260206004820152602a60248201527f4552433732313a2062616c616e636520717565727920666f7220746865207a65604482015260b060020a69726f20616464726573730260648201526084016106c3565b50600160a060020a031660009081526003602052604090205490565b6000610b0d82612479565b6000818152600960205260409020549091503414610b405760405160e560020a62461bcd0281526004016106c390613171565b60008211610b635760405160e560020a62461bcd0281526004016106c39061319c565b600654821115610b885760405160e560020a62461bcd0281526004016106c39061319c565b610b9233836124f5565b506000818152600b6020908152604080832060019081905533808552600e8452828520805480840182558187528587200183905581865254600f8552838620878752855283862055808552600c845282852080549283018155808652848620909201869055845254600d835281842094845293909152902055565b600a54600160a060020a03163314610c3a5760405160e560020a62461bcd0281526004016106c3906130e1565b601280546001810182556000919091527fbb8a6a4669ba250d26cd7a459eca9d215f8307e33aebe50379bc5a3617ec34440155565b6060600180546105d290613054565b600a54600160a060020a03163314610cab5760405160e560020a62461bcd0281526004016106c3906130e1565b60005b8151811015610cfc576012828281518110610ccb57610ccb61313c565b6020908102919091018101518254600181018455600093845291909220015580610cf481613156565b915050610cae565b5050565b60003411610d465760405160e560020a62461bcd02815260206004820152600d6024820152609860020a6c496e76616c69642056616c75650260448201526064016106c3565b610d4f816109f8565b600160a060020a031633600160a060020a03161415610d6d57600080fd5b60006040518060e001604052806014805490506001610d8c91906131c9565b815233602080830182905260009182526015905260409081902054910190610db59060016131c9565b8152602001610dc3846109f8565b600160a060020a0316815260200160166000610dde866109f8565b600160a060020a03168152602081019190915260400160002054610e039060016131c9565b81526020808201859052346040928301526014805460018082018355600092835285517fce6d7b5282bd9a3661ae061feed1dbda4e52ab073b1f9285be6e155d9c38d4ec60079384029081019190915586850180517fce6d7b5282bd9a3661ae061feed1dbda4e52ab073b1f9285be6e155d9c38d4ed83018054600160a060020a0319908116600160a060020a039384161790915589890180517fce6d7b5282bd9a3661ae061feed1dbda4e52ab073b1f9285be6e155d9c38d4ee86015560608b0180517fce6d7b5282bd9a3661ae061feed1dbda4e52ab073b1f9285be6e155d9c38d4ef87018054851691861691909117905560808c0180517fce6d7b5282bd9a3661ae061feed1dbda4e52ab073b1f9285be6e155d9c38d4f088015560a08d0180517fce6d7b5282bd9a3661ae061feed1dbda4e52ab073b1f9285be6e155d9c38d4f189015560c08e0180517fce6d7b5282bd9a3661ae061feed1dbda4e52ab073b1f9285be6e155d9c38d4f290990198909855338b5260158c529b8a208054808a018255908b529a8a208d519b909902909801998a559351958901805483169684169690961790955593516002880155905160038701805490941691161790915590516004840155925160058301559151600690910155909150601690610fec846109f8565b600160a060020a039081168252602080830193909352604091820160009081208054600181810183559183528583208751600790920201908155948601519085018054918416600160a060020a031992831617905592850151600285015560608501516003850180549190931693169290921790556080830151600483015560a0830151600583015560c0830151600690920191909155601380543492906110959084906131c9565b90915550505050565b610cfc338383612628565b600160a060020a0381166000908152600c60209081526040918290208054835181840281018401909452808452606093928301828280156109ec57602002820191906000526020600020908154815260200190600101908083116109d85750505050509050919050565b60608282101561112257600080fd5b60065482111561113157600080fd5b600061113d8484613125565b6111489060016131c9565b6001604060020a0381111561115f5761115f612d34565b604051908082528060200260200182016040528015611188578160200160208202803683370190505b5090506000845b8481116111e4576000818152600b602052604090205483518490849081106111b9576111b961313c565b6020908102919091010152816111ce81613156565b92505080806111dc90613156565b91505061118f565b5090949350505050565b6111f83383612204565b6112175760405160e560020a62461bcd0281526004016106c39061308d565b611223848484846126f9565b50505050565b60006014611238600184613125565b815481106112485761124861313c565b60009182526020918290206040805160e0810182526007909302909101805483526001810154600160a060020a039081169484019490945260028101549183019190915260038101549092166060820181905260048301546080830152600583015460a083015260069092015460c0820152915033146112c757600080fd5b6112da3382602001518360a001516108b2565b8060600151600160a060020a03166108fc8260c001519081150290604051600060405180830381858888f1935050505015801561131b573d6000803e3d6000fd5b508060c00151601360008282546113329190613125565b9091555060149050611345600184613125565b815481106113555761135561313c565b60009182526020808320600790920290910182815560018082018054600160a060020a03199081169091556002830185905560038301805490911690556004820184905560058201849055600690910183905583820151600160a060020a031683526015909152604091829020918301516113d09190613125565b815481106113e0576113e061313c565b60009182526020808320600790920290910182815560018082018054600160a060020a031990811690915560028301859055600383018054909116905560048201849055600582018490556006909101839055338352601690915260409091206080830151909161145091613125565b815481106114605761146061313c565b600091825260208220600790910201818155600181018054600160a060020a03199081169091556002820183905560038201805490911690556004810182905560058101829055600601555050565b60606114ba82612179565b6115245760405160e560020a62461bcd02815260206004820152602f60248201527f4552433732314d657461646174613a2055524920717565727920666f72206e6f6044820152608960020a6e3732bc34b9ba32b73a103a37b5b2b70260648201526084016106c3565b600061153b60408051602081019091526000815290565b9050600081511161155b5760405180602001604052806000815250611586565b806115658461272f565b6040516020016115769291906131e1565b6040516020818303038152906040525b9392505050565b8051806115af5760405160e560020a62461bcd0281526004016106c390613210565b60006115d4836000815181106115c7576115c761313c565b6020026020010151612479565b6000818152600960205260409020549091506115f1908390613239565b34146116125760405160e560020a62461bcd0281526004016106c390613171565b60005b83518110156112235760008482815181106116325761163261313c565b60200260200101511161165a5760405160e560020a62461bcd0281526004016106c39061319c565b60065484828151811061166f5761166f61313c565b602002602001015111156116985760405160e560020a62461bcd0281526004016106c39061319c565b6116ad8482815181106115c7576115c761313c565b82146116b857600080fd5b6116db338583815181106116ce576116ce61313c565b60200260200101516124f5565b6001600b60008684815181106116f3576116f361313c565b602090810291909101810151825281810192909252604090810160009081209390935533808452600e83528184208054600181810183558287528587209091015590845254600f90925282208651919290918790859081106117575761175761313c565b6020026020010151815260200190815260200160002081905550600c600033600160a060020a0316600160a060020a031681526020019081526020016000208482815181106117a8576117a861313c565b602090810291909101810151825460018101845560009384528284200155338252600c8152604080832054600d90925282208651919290918790859081106117f2576117f261313c565b6020026020010151815260200190815260200160002081905550808061181790613156565b915050611615565b600281101561182d57600080fd5b600a81111561183b57600080fd5b600081815260086020526040902054341461185557600080fd5b3361185f836109f8565b600160a060020a03161461187257600080fd5b6000828152600b602052604090205481141561188d57600080fd5b6207dfbb821180156118a0575080600214155b80156118ad575080600514155b80156118ba575080600814155b156118da5760405160e560020a62461bcd0281526004016106c390613258565b62032c66821180156118ef57506207dfbb8211155b8015611910575080600414806119055750806007145b80611910575080600a145b156119305760405160e560020a62461bcd0281526004016106c390613258565b336000908152600e60209081526040808320600f83528184208685529092529091205482919061196290600190613125565b815481106119725761197261313c565b60009182526020808320909101929092553381526010825260408082208483528352808220429055848252600b9092522054600110156119e257336000908152601160209081526040808320858452600b835281842054845290915281208054916119dc83613287565b91905055505b3360009081526011602090815260408083208484529091528120805491611a0883613156565b90915550506000918252600b602052604090912055565b600160a060020a03918216600090815260056020908152604080832093909416825291909152205460ff1690565b815180611a6f5760405160e560020a62461bcd0281526004016106c390613210565b6002821015611a7d57600080fd5b600a821115611a8b57600080fd5b600082815260086020526040902054611aa5908290613239565b3414611ac65760405160e560020a62461bcd0281526004016106c390613171565b6000611ade846000815181106115c7576115c761313c565b905080158015611aef575082600214155b8015611afc575082600514155b8015611b09575082600814155b15611b295760405160e560020a62461bcd0281526004016106c390613258565b806001148015611b4e57508260041480611b435750826007145b80611b4e575082600a145b15611b6e5760405160e560020a62461bcd0281526004016106c390613258565b60005b8451811015611ded5733600160a060020a0316611ba6868381518110611b9957611b9961313c565b60200260200101516109f8565b600160a060020a031614611bb957600080fd5b6000858281518110611bcd57611bcd61313c565b602002602001015111611bf55760405160e560020a62461bcd0281526004016106c39061319c565b600654858281518110611c0a57611c0a61313c565b60200260200101511115611c335760405160e560020a62461bcd0281526004016106c39061319c565b611c488582815181106115c7576115c761313c565b8214611c5357600080fd5b336000908152600e60209081526040808320600f909252822087518793600192918a9087908110611c8657611c8661313c565b6020026020010151815260200190815260200160002054611ca79190613125565b81548110611cb757611cb761313c565b60009182526020808320909101929092553381526010825260408082208783529092529081204290558551600191600b91889085908110611cfa57611cfa61313c565b60200260200101518152602001908152602001600020541115611d7e573360009081526011602052604081208651909190600b908290899086908110611d4257611d4261313c565b602002602001015181526020019081526020016000205481526020019081526020016000206000815480929190611d7890613287565b91905055505b3360009081526011602090815260408083208784529091528120805491611da483613156565b919050555083600b6000878481518110611dc057611dc061313c565b60200260200101518152602001908152602001600020819055508080611de590613156565b915050611b71565b5050505050565b606081611eb957600160a060020a038316600090815260156020908152604080832080548251818502810185019093528083529193909284015b82821015611eae5760008481526020908190206040805160e0810182526007860290920180548352600180820154600160a060020a03908116858701526002830154938501939093526003820154909216606084015260048101546080840152600581015460a08401526006015460c08301529083529092019101611e2e565b5050505090506105bd565b600160a060020a038316600090815260166020908152604080832080548251818502810185019093528083529193909284018215611eae5760008481526020908190206040805160e0810182526007860290920180548352600180820154600160a060020a03908116858701526002830154938501939093526003820154909216606084015260048101546080840152600581015460a08401526006015460c08301529083529092019101611e2e565b60006014611f78600184613125565b81548110611f8857611f8861313c565b60009182526020918290206040805160e0810182526007909302909101805483526001810154600160a060020a039081169484018590526002820154928401929092526003810154909116606083015260048101546080830152600581015460a08301526006015460c08201529150331461200257600080fd5b8060200151600160a060020a03166108fc8260c001519081150290604051600060405180830381858888f19350505050158015612043573d6000803e3d6000fd5b508060c001516013600082825461205a9190613125565b909155506014905061206d600184613125565b8154811061207d5761207d61313c565b60009182526020808320600790920290910182815560018082018054600160a060020a0319908116909155600283018590556003830180549091169055600482018490556005820184905560069091018390553383526015909152604091829020918301516120ec9190613125565b815481106120fc576120fc61313c565b60009182526020808320600790920290910182815560018082018054600160a060020a0319908116909155600283018590556003830180549091169055600482018490556005820184905560069091018390556060840151600160a060020a03168352601690915260409091206080830151909161145091613125565b600090815260026020526040902054600160a060020a0316151590565b60008181526004602052604090208054600160a060020a031916600160a060020a03841690811790915581906121cb826109f8565b600160a060020a03167f8c5be1e5ebec7d5bd14f71427d1e84f3dd0314c0f7b2291e5b200ac8c7c3b92560405160405180910390a45050565b600061220f82612179565b6122765760405160e560020a62461bcd02815260206004820152602c60248201527f4552433732313a206f70657261746f7220717565727920666f72206e6f6e6578604482015260a160020a6b34b9ba32b73a103a37b5b2b70260648201526084016106c3565b6000612281836109f8565b905080600160a060020a031684600160a060020a031614806122bc575083600160a060020a03166122b184610655565b600160a060020a0316145b806122cc57506122cc8185611a1f565b949350505050565b82600160a060020a03166122e7826109f8565b600160a060020a0316146123555760405160e560020a62461bcd02815260206004820152602960248201527f4552433732313a207472616e73666572206f6620746f6b656e20746861742069604482015260b960020a6839903737ba1037bbb70260648201526084016106c3565b600160a060020a0382166123bd5760405160e560020a62461bcd028152602060048201526024808201527f4552433732313a207472616e7366657220746f20746865207a65726f20616464604482015260e060020a63726573730260648201526084016106c3565b6123c8838383612832565b6123d3600082612196565b600160a060020a03831660009081526003602052604081208054600192906123fc908490613125565b9091555050600160a060020a038216600090815260036020526040812080546001929061242a9084906131c9565b90915550506000818152600260205260408082208054600160a060020a031916600160a060020a03868116918217909255915184939187169160008051602061339083398151915291a4505050565b600080805260076020527f6d5257204ebe7d88fd91ae87941cb2dd9d8062b64ae5a2bd2d28ec40b9fbf6df5482116124b357506002919050565b600160005260076020527fb39221ace053465ec3453ce2b36430bd138b997ecea25c1043da0c366812b8285482116124ed57506001919050565b506000919050565b600160a060020a03821661254e5760405160e560020a62461bcd02815260206004820181905260248201527f4552433732313a206d696e7420746f20746865207a65726f206164647265737360448201526064016106c3565b61255781612179565b156125a75760405160e560020a62461bcd02815260206004820152601c60248201527f4552433732313a20746f6b656e20616c7265616479206d696e7465640000000060448201526064016106c3565b6125b360008383612832565b600160a060020a03821660009081526003602052604081208054600192906125dc9084906131c9565b90915550506000818152600260205260408082208054600160a060020a031916600160a060020a0386169081179091559051839290600080516020613390833981519152908290a45050565b81600160a060020a031683600160a060020a0316141561268c5760405160e560020a62461bcd0281526020600482015260196024820152603960020a7822a9219b99189d1030b8383937bb32903a379031b0b63632b90260448201526064016106c3565b600160a060020a03838116600081815260056020908152604080832094871680845294825291829020805460ff191686151590811790915591519182527f17307eab39ab6107e8899845ad3d59bd9653f200f220920489ca2b5937696c31910160405180910390a3505050565b6127048484846122d4565b61271084848484612a95565b6112235760405160e560020a62461bcd0281526004016106c39061329e565b606081612756575050604080518082019091526001815260fc60020a600302602082015290565b8160005b8115612780578061276a81613156565b91506127799050600a8361330d565b915061275a565b6000816001604060020a0381111561279a5761279a612d34565b6040519080825280601f01601f1916602001820160405280156127c4576020820181803683370190505b5090505b84156122cc576127d9600183613125565b91506127e6600a86613321565b6127f19060306131c9565b60f860020a028183815181106128095761280961313c565b6020010190600160f860020a031916908160001a90535061282b600a8661330d565b94506127c8565b81600160a060020a031683600160a060020a0316141561285157600080fd5b6000818152600b60205260409020541561080057600160a060020a0383166000908152600c60209081526040808320600d83528184208585529092529091205461289d90600190613125565b815481106128ad576128ad61313c565b60009182526020808320909101829055600160a060020a038516808352600d825260408084208585528352808420849055908352600e8252808320600f83528184208585529092529091205461290590600190613125565b815481106129155761291561313c565b60009182526020808320909101829055600160a060020a0385168252600f815260408083208484528252808320839055600b9091529020546001101561299457600160a060020a0383166000908152601160209081526040808320848452600b8352818420548452909152812080549161298e83613287565b91905055505b600160a060020a0382166000818152600c602090815260408083208054600181810183558286528486209091018790558585529054600d8452828520878652845282852055848452600e8352818420868552600b80855283862080548354808601855584895287892001559686529054600f8552838620888752855292909420919091559190529054111561080057600160a060020a0382166000908152601160209081526040808320848452600b83528184205484529091528120805491612a5c83613156565b9091555050600160a060020a03919091166000908152601060209081526040808320938352600b82528083205483529290522042905550565b6000600160a060020a0384163b15612b915760405160e160020a630a85bd01028152600160a060020a0385169063150b7a0290612adc903390899088908890600401613335565b6020604051808303816000875af1925050508015612b17575060408051601f3d908101601f19168201909252612b1491810190613372565b60015b612b74573d808015612b45576040519150601f19603f3d011682016040523d82523d6000602084013e612b4a565b606091505b508051612b6c5760405160e560020a62461bcd0281526004016106c39061329e565b805181602001fd5b600160e060020a03191660e160020a630a85bd01021490506122cc565b506001949350505050565b600160e060020a0319811681146108af57600080fd5b600060208284031215612bc457600080fd5b813561158681612b9c565b60005b83811015612bea578181015183820152602001612bd2565b838111156112235750506000910152565b60008151808452612c13816020860160208601612bcf565b601f01601f19169290920160200192915050565b6020815260006115866020830184612bfb565b600060208284031215612c4c57600080fd5b5035919050565b8035600160a060020a0381168114612c6a57600080fd5b919050565b60008060408385031215612c8257600080fd5b612c8b83612c53565b946020939093013593505050565b600080600060608486031215612cae57600080fd5b612cb784612c53565b9250612cc560208501612c53565b9150604084013590509250925092565b6020808252825182820181905260009190848201906040850190845b81811015612d0d57835183529284019291840191600101612cf1565b50909695505050505050565b600060208284031215612d2b57600080fd5b61158682612c53565b60e060020a634e487b710260009081526041600452602490fd5b604051601f8201601f191681016001604060020a0381118282101715612d7657612d76612d34565b604052919050565b600082601f830112612d8f57600080fd5b813560206001604060020a03821115612daa57612daa612d34565b808202612db8828201612d4e565b9283528481018201928281019087851115612dd257600080fd5b83870192505b84831015612df157823582529183019190830190612dd8565b979650505050505050565b600060208284031215612e0e57600080fd5b81356001604060020a03811115612e2457600080fd5b6122cc84828501612d7e565b60008060408385031215612e4357600080fd5b612e4c83612c53565b915060208301358015158114612e6157600080fd5b809150509250929050565b60008060408385031215612e7f57600080fd5b50508035926020909101359150565b60008060008060808587031215612ea457600080fd5b612ead85612c53565b93506020612ebc818701612c53565b93506040860135925060608601356001604060020a0380821115612edf57600080fd5b818801915088601f830112612ef357600080fd5b813581811115612f0557612f05612d34565b612f17601f8201601f19168501612d4e565b91508082528984828501011115612f2d57600080fd5b808484018584013760008482840101525080935050505092959194509250565b60008060408385031215612f6057600080fd5b612f6983612c53565b9150612f7760208401612c53565b90509250929050565b60008060408385031215612f9357600080fd5b82356001604060020a03811115612fa957600080fd5b612fb585828601612d7e565b95602094909401359450505050565b602080825282518282018190526000919060409081850190868401855b828110156130475781518051855286810151600160a060020a03908116888701528682015187870152606080830151909116908601526080808201519086015260a0808201519086015260c0908101519085015260e09093019290850190600101612fe1565b5091979650505050505050565b60028104600182168061306857607f821691505b602082108114156109865760e060020a634e487b710260009081526022600452602490fd5b60208082526031908201527f4552433732313a207472616e736665722063616c6c6572206973206e6f74206f6040820152607a60020a701ddb995c881b9bdc88185c1c1c9bdd995902606082015260800190565b6020808252600d90820152609a60020a6c1058d8d95cdcc811195b9a595902604082015260600190565b60e060020a634e487b710260009081526011600452602490fd5b6000828210156131375761313761310b565b500390565b60e060020a634e487b710260009081526032600452602490fd5b600060001982141561316a5761316a61310b565b5060010190565b6020808252600e90820152609260020a6d125b9d985b1a5908105b5bdd5b9d02604082015260600190565b6020808252601090820152608260020a6f125b9d985b1a5908151bdad95b88125902604082015260600190565b600082198211156131dc576131dc61310b565b500190565b600083516131f3818460208801612bcf565b835190830190613207818360208801612bcf565b01949350505050565b6020808252600c9082015260a160020a6b27379029b2b632b1ba34b7b702604082015260600190565b60008160001904831182151516156132535761325361310b565b500290565b6020808252601290820152607160020a7124b731b7b6b830ba34b136329026b4b732b902604082015260600190565b6000816132965761329661310b565b506000190190565b60208082526032908201527f4552433732313a207472616e7366657220746f206e6f6e2045524337323152656040820152607160020a7131b2b4bb32b91034b6b83632b6b2b73a32b902606082015260800190565b60e060020a634e487b710260009081526012600452602490fd5b60008261331c5761331c6132f3565b500490565b600082613330576133306132f3565b500690565b600160a060020a038581168252841660208201526040810183905260806060820181905260009061336890830184612bfb565b9695505050505050565b60006020828403121561338457600080fd5b815161158681612b9c56feddf252ad1be2c89b69c2b068fc378daa952ba7f163c4a11628f55a4df523b3efa264697066735822122093a2636c5007efe667bc2fdd438f4c1d3340a186da52ed7c086800e4793839e164736f6c634300080a0033",
  "immutableReferences": {},
  "source": "// SPDX-License-Identifier: MIT\npragma solidity ^0.8.0;\n\nimport \"@openzeppelin/contracts/token/ERC721/ERC721.sol\";\n\ncontract LAND is ERC721 {\n\tuint private lastToken = 1015195;\n\n\tmapping(uint => uint) private breakPoints;\n\tmapping(uint => uint) private prices;\n\tmapping(uint => uint) private basePrices;\n\n\taddress private admin;\n\n\tfunction totalSupply() public view returns (uint) {\n\t\treturn lastToken;\n\t}\n\n\tconstructor() ERC721(\"LAND\", \"LAND\") {\n\t\tadmin = msg.sender;\n\n\t\t// Breakpoints\n\t\tbreakPoints[0] = 207974;\n\t\tbreakPoints[1] = 516027;\n\t\tbreakPoints[2] = 1015195;\n\n\t\t// Base Land Price\n\t\tbasePrices[0] = 0.1 ether;\n\t\tbasePrices[1] = 0.2 ether;\n\t\tbasePrices[2] = 0.3 ether;\n\n\t\t// ETC\n\t\tprices[2] = 1.99 ether;\n\t\tprices[3] = 2.99 ether;\n\t\tprices[4] = 3.99 ether;\n\n\t\t// LTC\n\t\tprices[5] = 4.99 ether;\n\t\tprices[6] = 5.99 ether;\n\t\tprices[7] = 6.99 ether;\n\n\t\t// BTC\n\t\tprices[8] = 7.99 ether;\n\t\tprices[9] = 8.99 ether;\n\t\tprices[10] = 9.99 ether;\n\t}\n\n\tmapping(uint => uint) private status;\n\tmapping(address => uint[]) private myLands;\n\tmapping(address => mapping(uint => uint)) private ownershipIndex;\n\tmapping(address => uint[]) private myLandStatuses;\n\tmapping(address => mapping(uint => uint)) private ownerLandStatusIndex;\n\t\n\tmapping(address => mapping(uint => uint)) public latestInstall;\n\tmapping(address => mapping(uint => uint)) public eqCount;\n\n\tfunction getMyLands(address addr) public view returns (uint[] memory) {\n\t\treturn myLands[addr];\n\t}\n\tfunction getMyLandStatuses(address addr) public view returns (uint[] memory) {\n\t\treturn myLandStatuses[addr];\n\t}\n\n\tfunction getLevel(uint id) internal view returns (uint) {\n\t\tif (id <= breakPoints[0]) return 2;\n\t\telse if (id <= breakPoints[1]) return 1;\n\t\treturn 0;\n\t}\n\n\tfunction mintLand(uint tokenId) payable external {\n\t\tuint level = getLevel(tokenId);\n\t\trequire(msg.value == basePrices[level], 'Invalid Amount');\n\t\t\n\t\trequire(tokenId > 0, \"Invalid Token Id\");\n\t\trequire(tokenId <= lastToken, \"Invalid Token Id\");\n\t\t\n\t\t_mint(msg.sender, tokenId);\n\t\t\n\t\tstatus[tokenId] = 1;\n\t\tmyLandStatuses[msg.sender].push(1);\n\t\townerLandStatusIndex[msg.sender][tokenId] = myLandStatuses[msg.sender].length;\n\n\t\tmyLands[msg.sender].push(tokenId);\n\t\townershipIndex[msg.sender][tokenId] = myLands[msg.sender].length;\n\t}\n\n\tfunction mintMultiple(uint[] memory tokenIds) payable external {\n\t\tuint count = tokenIds.length;\n\t\trequire(count > 0, \"No Selection\");\n\n\t\tuint level = getLevel(tokenIds[0]);\n\t\trequire(msg.value == basePrices[level] * count, \"Invalid Amount\");\n\n\t\tfor (uint i = 0; i < tokenIds.length; i++) {\n\t\t\trequire(tokenIds[i] > 0, \"Invalid Token Id\");\n\t\t\trequire(tokenIds[i] <= lastToken, \"Invalid Token Id\");\n\t\t\trequire(level == getLevel(tokenIds[i]));\n\t\t\t\n\t\t\t_mint(msg.sender, tokenIds[i]);\n\t\t\t\n\t\t\tstatus[tokenIds[i]] = 1;\n\t\t\tmyLandStatuses[msg.sender].push(1);\n\t\t\townerLandStatusIndex[msg.sender][tokenIds[i]] = myLandStatuses[msg.sender].length;\n\n\t\t\tmyLands[msg.sender].push(tokenIds[i]);\n\t\t\townershipIndex[msg.sender][tokenIds[i]] = myLands[msg.sender].length;\n\t\t}\n\t}\n\n\tfunction _beforeTokenTransfer(address from, address to, uint256 tokenId) internal virtual override {\n\t\trequire(from != to);\n\n\t\tif (status[tokenId] > 0) {\n\t\t\t// Delete current owner record\n\t\t\tdelete myLands[from][ownershipIndex[from][tokenId] - 1];\n\t\t\tdelete ownershipIndex[from][tokenId];\n\n\t\t\tdelete myLandStatuses[from][ownerLandStatusIndex[from][tokenId] - 1];\n\t\t\tdelete ownerLandStatusIndex[from][tokenId];\n\n\t\t\tif (status[tokenId] > 1) eqCount[from][status[tokenId]]--;\n\n\n\t\t\t// Set new owner record\n\t\t\tmyLands[to].push(tokenId);\n\t\t\townershipIndex[to][tokenId] = myLands[to].length;\n\n\t\t\tmyLandStatuses[to].push(status[tokenId]);\n\t\t\townerLandStatusIndex[to][tokenId] = myLandStatuses[to].length;\n\n\t\t\tif (status[tokenId] > 1) {\n\t\t\t\teqCount[to][status[tokenId]]++;\n\t\t\t\tlatestInstall[to][status[tokenId]] = block.timestamp;\n\t\t\t}\n\t\t}\n\t}\n\n\tfunction updateStatus(uint tokenId, uint newStatus) payable external {\n\t\trequire(newStatus >= 2);\n\t\trequire(newStatus <= 10);\n\t\trequire(msg.value == prices[newStatus]);\n\t\trequire(ownerOf(tokenId) == msg.sender);\n\t\trequire(status[tokenId] != newStatus);\n\t\t\n\t\t// land rating 1\n\t\tif (tokenId > 516027 && newStatus != 2 && newStatus != 5 && newStatus != 8) revert('Incompatible Miner');\n\t\t\n\t\t// land rating 2\n\t\telse if (tokenId > 207974 && tokenId <= 516027 && (newStatus == 4 || newStatus == 7 || newStatus == 10)) revert('Incompatible Miner');\n\n\t\tmyLandStatuses[msg.sender][ownerLandStatusIndex[msg.sender][tokenId] - 1] = newStatus;\n\n\t\tlatestInstall[msg.sender][newStatus] = block.timestamp;\n\t\t\t\n\t\tif (status[tokenId] > 1) eqCount[msg.sender][status[tokenId]]--;\n\t\teqCount[msg.sender][newStatus]++;\n\n\t\tstatus[tokenId] = newStatus;\n\t}\n\n\tfunction updateMultiple(uint[] memory tokenIds, uint newStatus) payable external {\n\t\tuint count = tokenIds.length;\n\t\trequire(count > 0, \"No Selection\");\n\t\t\n\t\trequire(newStatus >= 2);\n\t\trequire(newStatus <= 10);\n\n\t\trequire(msg.value == prices[newStatus] * count, \"Invalid Amount\");\n\t\t\n\t\tuint level = getLevel(tokenIds[0]);\n\t\t\n\t\t// land rating 1\n\t\tif (level == 0 && newStatus != 2 && newStatus != 5 && newStatus != 8) revert('Incompatible Miner');\n\t\t\n\t\t// land rating 2\n\t\telse if (level == 1 && (newStatus == 4 || newStatus == 7 || newStatus == 10)) revert('Incompatible Miner');\n\n\t\tfor (uint i = 0; i < tokenIds.length; i++) {\n\t\t\trequire(ownerOf(tokenIds[i]) == msg.sender);\n\t\t\trequire(tokenIds[i] > 0, \"Invalid Token Id\");\n\t\t\trequire(tokenIds[i] <= lastToken, \"Invalid Token Id\");\n\t\t\trequire(level == getLevel(tokenIds[i]));\n\n\t\t\tmyLandStatuses[msg.sender][ownerLandStatusIndex[msg.sender][tokenIds[i]] - 1] = newStatus;\n\n\t\t\tlatestInstall[msg.sender][newStatus] = block.timestamp;\n\t\t\t\t\n\t\t\tif (status[tokenIds[i]] > 1) eqCount[msg.sender][status[tokenIds[i]]]--;\n\t\t\teqCount[msg.sender][newStatus]++;\n\n\t\t\tstatus[tokenIds[i]] = newStatus;\n\t\t}\n\t}\n\n\tfunction getStatus(uint start, uint end) public view returns (uint[] memory) {\n\t\trequire(end >= start);\n\t\trequire(end <= lastToken);\n\n\t\tuint[] memory arr = new uint[](end - start + 1);\n\t\tuint counter = 0;\n\t\tfor (uint i = start; i <= end; i++) {\n\t\t\tarr[counter] = status[i];\n\t\t\tcounter++;\n\t\t}\n\n\t\treturn arr;\n\t}\n\n\tuint[] private featured;\n\tfunction addFeat(uint tokenId) public {\n\t\trequire(msg.sender == admin, \"Access Denied\");\n\t\tfeatured.push(tokenId);\n\t}\n\tfunction addFeatMultiple(uint[] memory tokenIds) public {\n\t\trequire(msg.sender == admin, \"Access Denied\");\n\t\tfor (uint i = 0; i < tokenIds.length; i++) {\n\t\t\tfeatured.push(tokenIds[i]);\n\t\t}\n\t}\n\tfunction getFeatured() public view returns (uint[] memory) {\n\t\tuint[] memory arr = new uint[](featured.length);\n\t\tfor (uint i = 0; i < featured.length; i++) {\n\t\t\tarr[i] = status[featured[i]];\n\t\t}\n\n\t\treturn arr;\n\t}\n\n\tuint private offerFund;\n\tstruct Offer {\n\t\tuint id;\n\t\t\n\t\taddress from;\n\t\tuint fromIndex;\n\t\t\n\t\taddress to;\n\t\tuint toIndex;\n\t\t\n\t\tuint tokenId;\n\t\tuint amt;\n\t}\n\tOffer[] private offers;\n\tmapping(address => Offer[]) private offersMade;\n\tmapping(address => Offer[]) private offersRcvd;\n\tfunction makeOffer(uint tokenId) external payable {\n\t\trequire(msg.value > 0, \"Invalid Value\");\n\t\trequire(msg.sender != ownerOf(tokenId));\n\t\t\n\t\tOffer memory offer = Offer(\n\t\t\toffers.length + 1,\n\t\t\tmsg.sender,\n\t\t\toffersMade[msg.sender].length + 1,\n\t\t\townerOf(tokenId),\n\t\t\toffersRcvd[ownerOf(tokenId)].length + 1,\n\t\t\ttokenId,\n\t\t\tmsg.value\n\t\t);\n\n\t\toffers.push(offer);\n\t\toffersMade[msg.sender].push(offer);\n\t\toffersRcvd[ownerOf(tokenId)].push(offer);\n\n\t\tofferFund += msg.value;\n\t}\n\n\tfunction cancelOffer(uint offerId) public {\n\t\tOffer memory offer = offers[offerId - 1];\n\t\trequire(offer.from == msg.sender);\n\n\t\tpayable(offer.from).transfer(offer.amt);\n\t\tofferFund -= offer.amt;\n\n\t\tdelete offers[offerId - 1];\n\t\tdelete offersMade[msg.sender][offer.fromIndex - 1];\n\t\tdelete offersRcvd[offer.to][offer.toIndex - 1];\n\t}\n\n\tfunction acceptOffer(uint offerId) public {\n\t\tOffer memory offer = offers[offerId - 1];\n\t\trequire(offer.to == msg.sender);\n\n\t\tsafeTransferFrom(msg.sender, offer.from, offer.tokenId);\n\t\tpayable(offer.to).transfer(offer.amt);\n\t\tofferFund -= offer.amt;\n\n\t\tdelete offers[offerId - 1];\n\t\tdelete offersMade[offer.from][offer.fromIndex - 1];\n\t\tdelete offersRcvd[msg.sender][offer.toIndex - 1];\n\t}\n\n\tfunction getOffers(address addr, uint oType) public view returns (Offer[] memory) {\n\t\tif (oType == 0) return offersMade[addr];\n\t\telse return offersRcvd[addr];\n\t}\n\n\n\tfunction withdraw() public {\n\t\trequire(msg.sender == admin, \"Access Denied\");\n\t\tpayable(admin).transfer(address(this).balance - offerFund);\n\t}\n}",
  "sourcePath": "C:\\Users\\debuj\\Desktop\\projects\\game1\\contracts\\contracts\\LAND.sol",
  "compiler": {
    "name": "solc",
    "version": "0.8.10+commit.fc410830.Emscripten.clang"
  },
  "schemaVersion": "3.4.3",
  "updatedAt": "2022-02-17T16:23:39.479Z",
  "networkType": "ethereum",
  "devdoc": {
    "kind": "dev",
    "methods": {
      "approve(address,uint256)": {
        "details": "See {IERC721-approve}."
      },
      "balanceOf(address)": {
        "details": "See {IERC721-balanceOf}."
      },
      "getApproved(uint256)": {
        "details": "See {IERC721-getApproved}."
      },
      "isApprovedForAll(address,address)": {
        "details": "See {IERC721-isApprovedForAll}."
      },
      "name()": {
        "details": "See {IERC721Metadata-name}."
      },
      "ownerOf(uint256)": {
        "details": "See {IERC721-ownerOf}."
      },
      "safeTransferFrom(address,address,uint256)": {
        "details": "See {IERC721-safeTransferFrom}."
      },
      "safeTransferFrom(address,address,uint256,bytes)": {
        "details": "See {IERC721-safeTransferFrom}."
      },
      "setApprovalForAll(address,bool)": {
        "details": "See {IERC721-setApprovalForAll}."
      },
      "supportsInterface(bytes4)": {
        "details": "See {IERC165-supportsInterface}."
      },
      "symbol()": {
        "details": "See {IERC721Metadata-symbol}."
      },
      "tokenURI(uint256)": {
        "details": "See {IERC721Metadata-tokenURI}."
      },
      "transferFrom(address,address,uint256)": {
        "details": "See {IERC721-transferFrom}."
      }
    },
    "version": 1
  },
  "userdoc": {
    "kind": "user",
    "methods": {},
    "version": 1
  }
}